:100000000C945D000C9485000C9485000C94850084
:100010000C9485000C9485000C9485000C9485004C
:100020000C9485000C9485000C9485000C9485003C
:100030000C9485000C9485000C9485000C9485002C
:100040000C9432020C9485000C94A2020C947C0255
:100050000C9485000C9485000C9485000C9485000C
:100060000C9485000C9485000000000024002700FB
:100070002A0000000000250028002B0004040404CE
:100080000404040402020202020203030303030342
:10009000010204081020408001020408102001021F
:1000A00004081020000000080002010000030407FB
:1000B0000000000000000000030511241FBECFEF68
:1000C000D8E0DEBFCDBF11E0A0E0B1E0E8E7FBE0A3
:1000D00002C005900D92A831B107D9F721E0A8E13F
:1000E000B1E001C01D92A43CB207E1F710E0CDE5FC
:1000F000D0E004C02197FE010E94AF05CC35D107A6
:10010000C9F70E94D4020C94BA050C94000090E048
:10011000FC01EC55FF4F3491FC01E057FF4F249157
:10012000FC01E458FF4FE491EE2309F43BC0332374
:1001300039F1333091F038F43130A9F0323001F533
:1001400084B58F7D12C0373091F03830A1F0343053
:10015000B9F4809180008F7D03C0809180008F77FB
:10016000809380000DC084B58F7784BD09C08091D5
:10017000B0008F7703C08091B0008F7D8093B00076
:10018000F0E0EE0FFF1FEE58FF4FA591B4918FB72F
:10019000F894EC91611103C020952E2301C02E2B01
:1001A0002C938FBF0895CF93DF9390E0FC01E0572D
:1001B000FF4F2491FC01E458FF4F8491882361F1A3
:1001C00090E0880F991FFC01E859FF4FC591D49129
:1001D000FC01EE58FF4FA591B491611109C09FB782
:1001E000F8948881209582238883EC912E230BC07C
:1001F000623061F49FB7F8943881822F8095832311
:100200008883EC912E2B2C939FBF06C08FB7F89458
:10021000E8812E2B28838FBFDF91CF9108958E30F8
:1002200008F08E508770806480937C0080917A0003
:10023000806480937A0080917A0086FDFCCF809163
:1002400078002091790090E0922B0895CF92DF9270
:10025000EF92FF920F931F93CF93DF936C017A017C
:100260008B01C0E0D0E0CE15DF0589F0D8016D919B
:100270008D01D601ED91FC910190F081E02DC60138
:100280000995892B11F47E0102C02196ECCFC7019C
:10029000DF91CF911F910F91FF90EF90DF90CF9062
:1002A0000895089580E090E00895FC01538D448DF9
:1002B000252F30E0842F90E0821B930B541710F011
:1002C000CF96089501970895FC01918D828D98171E
:1002D00061F0828DDF01A80FB11D5D968C91928D2A
:1002E0009F5F9F73928F90E008958FEF9FEF089527
:1002F000FC01918D828D981731F0828DE80FF11DF0
:10030000858D90E008958FEF9FEF0895FC01918D0A
:10031000228D892F90E0805C9F4F821B91098F7303
:100320009927089588E191E00E94860121E0892BB8
:1003300009F420E0822F0895FC01848DDF01A80FCD
:10034000B11DA35ABF4F2C91848D90E001968F73FD
:100350009927848FA689B7892C93A089B1898C911C
:1003600080648C93938D848D981306C00288F389E2
:10037000E02D80818F7D80830895EF92FF920F930F
:100380001F93CF93DF93EC0181E0888F9B8D8C8D41
:10039000981305C0E889F989808185FD24C0F62E6F
:1003A0000B8D10E00F5F1F4F0F731127E02E8C8D08
:1003B000E8120CC00FB607FCFACFE889F9898081F2
:1003C00085FFF5CFCE010E949C01F1CF8B8DFE0100
:1003D000E80FF11DE35AFF4FF0820B8FEA89FB898A
:1003E0008081806207C0EE89FF896083E889F9898E
:1003F00080818064808381E090E0DF91CF911F91C4
:100400000F91FF90EF900895CF93DF93EC01888DCB
:100410008823C9F0EA89FB89808185FD05C0A88908
:10042000B9898C9186FD0FC00FB607FCF5CF80818E
:1004300085FFF2CFA889B9898C9185FFEDCFCE01D8
:100440000E949C01E7CFDF91CF91089580E090E07A
:10045000892B29F00E94920181110C9400000895CB
:100460000E94B5051F920F920FB60F9211242F9381
:100470003F938F939F93AF93BF938091C0019091CF
:10048000C101A091C201B091C3013091BF0123E02D
:10049000230F2D3720F40196A11DB11D05C026E8BC
:1004A000230F0296A11DB11D2093BF018093C001AF
:1004B0009093C101A093C201B093C3018091BB018D
:1004C0009091BC01A091BD01B091BE010196A11D0A
:1004D000B11D8093BB019093BC01A093BD01B0936B
:1004E000BE01BF91AF919F918F913F912F910F903E
:1004F0000FBE0F901F9018951F920F920FB60F927C
:1005000011242F933F934F935F936F937F938F9318
:100510009F93AF93BF93EF93FF9388E191E00E9485
:100520009C01FF91EF91BF91AF919F918F917F912E
:100530006F915F914F913F912F910F900FBE0F9050
:100540001F9018951F920F920FB60F9211242F93A0
:100550008F939F93EF93FF93E0912801F0912901EE
:100560008081E0912E01F0912F0182FD12C09081D7
:10057000809131018F5F8F7320913201821751F08A
:10058000E0913101F0E0E85EFE4F958F80933101FC
:1005900001C08081FF91EF919F918F912F910F90DA
:1005A0000FBE0F901F901895CF93DF9300D0CDB75B
:1005B000DEB7789484B5826084BD84B5816084BDE3
:1005C00085B5826085BD85B5816085BD80916E00F1
:1005D000816080936E001092810080918100826022
:1005E000809381008091810081608093810080915F
:1005F00080008160809380008091B100846080934E
:10060000B1008091B00081608093B00080917A0049
:10061000846080937A0080917A00826080937A006F
:1006200080917A00816080937A0080917A0080685E
:1006300080937A001092C100E0912801F091290185
:1006400082E08083E0912401F09125011082E09105
:100650002601F091270187E0808310923001E0911C
:100660002C01F0912D0186E08083E0912A01F09128
:100670002B01808180618083E0912A01F0912B0120
:10068000808188608083E0912A01F0912B01808134
:1006900080688083E0912A01F0912B0180818F7D19
:1006A000808361E083E00E94D30061E085E00E94E6
:1006B000D30061E08BE00E94D30061E08AE00E94F9
:1006C000D30061E089E00E94D30061E086E00E94EF
:1006D000D30061E082E00E94D30060E081E10E94EB
:1006E000D30060E08EE00E94D30060E08FE00E94C3
:1006F000D30060E080E10E94D30023E0222E312C61
:1007000088248394912C8EE00E940F016C018FE06D
:100710000E940F019A83898380E10E940F017C016E
:100720008FB7F8944091BB015091BC016091BD011D
:100730007091BE01E6B5A89B06C0EF3F21F04F5F68
:100740005F4F6F4F7F4F8FBF4090B7015090B80100
:100750006090B9017090BA018091040190910501F7
:100760008C0120E030E0762F652F542F44274E0F68
:10077000511D611D711D92E0440F551F661F771FAB
:100780009A95D1F744195509660977094017510719
:100790006207730708F41DC189819A818C0D9D1D24
:1007A0008E0D9F1DB1010E9480055B01400E511E00
:1007B000621E731E4092B7015092B8016092B90157
:1007C0007092BA01609002017090030183E0681694
:1007D000710409F45CC00CF5F1E06F16710409F4C2
:1007E0003FC082E06816710409F0B0C060E085E0A7
:1007F0000E94870060E08BE00E94870060E089E053
:100800000E94870060E086E00E94870061E083E04C
:100810000E94870061E08AE086C0E5E06E16710400
:1008200009F46BC00CF44AC086E06816710409F044
:100830008DC060E083E00E94870060E08BE00E9452
:10084000870060E08AE00E94870060E086E00E9406
:10085000870061E089E00E94870061E085E06CC06C
:1008600060E083E00E94870060E085E00E948700EE
:1008700060E08BE00E94870060E086E00E948700D5
:1008800061E08AE00E94870061E089E02DC060E0BD
:1008900085E00E94870060E08BE00E94870060E0B6
:1008A0008AE00E94870060E089E00E94870061E0A2
:1008B00086E00E94870061E083E03EC060E083E064
:1008C0000E94870060E085E00E94870060E08AE087
:1008D0000E94870060E089E00E94870061E08BE071
:1008E0000E94870061E086E00E948700CA18DB084A
:1008F000D092B601C092B50129C060E083E00E94A9
:10090000870060E08AE00E94870060E089E00E9442
:10091000870060E086E00E94870061E085E00E9439
:10092000870061E08BE00E948700EA18FB08F092E4
:10093000B601E092B5010AC00E94870009811A81C0
:100940000A191B091093B6010093B50180910001AB
:100950009091010197FF1BC08091B5019091B60164
:1009600018161906A4F49093010180930001EFEF8B
:100970006E1A7E0AF7E06F1671042CF47092030170
:100980006092020104C09092030180920201809162
:1009900000019091010118161906DCF48091B5014F
:1009A0009091B60197FF15C09093010180930001CB
:1009B00080910201909103010196873091052CF4FA
:1009C000909303018093020104C0909203018092EE
:1009D000020181E10E940F0127EE33E0DC010E9459
:1009E000940520E034E040E050E00E943005DA0158
:1009F000C9010196A11DB11D9093050180930401C9
:100A00000E94260280CEE8E1F1E01382128288EE95
:100A100093E0A0E0B0E084839583A683B7838AE067
:100A200091E09183808385EC90E09587848784ECC6
:100A300090E09787868780EC90E0918B808B81ECAB
:100A400090E0938B828B82EC90E0958B848B86EC8C
:100A500090E0978B868B118E128E138E148E0895D4
:100A6000052E97FB1EF400940E94470557FD07D002
:100A70000E944F0507FC03D04EF40C944705509597
:100A80004095309521953F4F4F4F5F4F089590957A
:100A90008095709561957F4F8F4F9F4F0895A1E28C
:100AA0001A2EAA1BBB1BFD010DC0AA1FBB1FEE1FE8
:100AB000FF1FA217B307E407F50720F0A21BB30B33
:100AC000E40BF50B661F771F881F991F1A9469F7AF
:100AD00060957095809590959B01AC01BD01CF010B
:100AE0000895A29FB001B39FC001A39F700D811D07
:100AF0001124911DB29F700D811D1124911D089527
:100B000097FB072E16F4009407D077FD09D00E94BA
:100B10009B0507FC05D03EF4909581959F4F089565
:100B2000709561957F4F08950E947105B7FF0895F4
:100B3000821B930B0895AA1BBB1B51E107C0AA1F80
:100B4000BB1FA617B70710F0A61BB70B881F991F6E
:100B50005A95A9F780959095BC01CD010895EE0FA7
:100B6000FF1F0590F491E02D099481E090E0F89446
:080B70000C94BA05F894FFCFC4
:100B7800FFFF0100A00F00000000BD012601550184
:080B88000402860164017801FA
:00000001FF
